:020000040000FA
:1000000058090020250200006502000009020000D6
:10001000690200006B0200006D0200000000000099
:100020000000000000000000000000006F0200005F
:100030007102000000000000730200007502000061
:1000400077020000770200007702000077020000CC
:1000500077020000770200007702000077020000BC
:1000600077020000770200007702000077020000AC
:10007000770200007702000077020000770200009C
:10008000770200007702000077020000770200008C
:10009000770200007702000077020000770200007C
:1000A000770200007702000077020000770200006C
:1000B000770200007702000077020000770200005C
:1000C000FD14000077020000770200000D1500000B
:1000D0004915000077020000770200007702000057
:1000E000890D00007702000077020000770200000F
:1000F000770200007702000077020000770200001C
:10010000770200007702000077020000770200000B
:1001100077020000770200007702000077020000FB
:1001200077020000770200007702000077020000EB
:1001300077020000770200007702000077020000DB
:1001400077020000770200007702000077020000CB
:1001500077020000770200007702000077020000BB
:1001600077020000770200007702000077020000AB
:10017000770200007702000077020000770200009B
:10018000770200007702000077020000770200008B
:10019000770200007702000077020000770200007B
:1001A000770200007702000077020000770200006B
:1001B000770200007702000077020000770200005B
:1001C000770200007702000077020000770200004B
:1001D000770200007702000077020000770200003B
:1001E000770200007702000077020000770200002B
:1001F00077020000DFF80CD000F0D6FA0048004784
:10020000932100005809002004207146084202D0C2
:10021000EFF3098001E0EFF308807146004A1047D0
:10022000D10C000014484FF0590101604FF0160145
:1002300001604FF0880101601048416841F480413D
:1002400041600F48416841F002014160416841F05E
:10025000040141600B48804707484FF000010160EE
:1002600009480047FEE7FEE7FEE7FEE7FEE7FEE798
:10027000FEE7FEE7FEE7FEE7000100400002004067
:100280000070004075130000F501000040EA010312
:100290009B0703D009E008C9121F08C0042AFAD23C
:1002A00003E011F8013B00F8013B521EF9D2704700
:1002B000D2B201E000F8012B491EFBD270470022A8
:1002C000F6E710B513460A4604461946FFF7F0FF55
:1002D000204610BD2DE9F04D81EA030404F0004BE7
:1002E00021F0004514464FF0000A23F0004150EA87
:1002F000050220D054EA01021DD0C5F30A57024678
:10030000C5F31303C1F31300C1F30A5640F480157B
:1003100043F48013A7EB0608101BD64608F2FD38FD
:1003200073EB050002D308F1010801E092185B416C
:10033000B8F1000F03DA00200146BDE8F08D00207F
:100340004FF48011064684460EE0171B73EB050739
:1003500005D3121B63EB050306434CEA010C490865
:100360004FEA300092185B4150EA0107EDD152EAA2
:10037000030012D082EA040083EA0501084305D095
:10038000101BAB4106D20122002306E000224FF0F1
:10039000004302E06FF0010253101AEB06004CEB31
:1003A000085110EB0A0041EB0B01BDE8F04D00F0E5
:1003B00054B80EB540F2334102910021CDE900114D
:1003C0000A460B4600F058F803B000BD30B50B46A6
:1003D000014600202022012409E021FA02F59D4275
:1003E00005D303FA02F5491B04FA02F52844151E49
:1003F000A2F10102F1DC30BD2DE9F05F05460020DD
:1004000092469B4688460646814640241BE0284685
:1004100041464746224600F0E8F953465A46C01A7C
:10042000914110D311461846224600F0CFF92D1AFB
:1004300067EB01084F4622460120002100F0C6F973
:1004400017EB00094E41201EA4F10104DFDC4846F1
:1004500031462A464346BDE8F09F10B5141E73F19D
:10046000000408DA401C41F1000192185B411A4374
:1004700001D120F0010010BD2DE9F04D92469B46C0
:1004800011B1B1FA81F202E0B0FA80F22032904666
:1004900000F09CF904460F4640EA0A0041EA0B01CD
:1004A00053465A46084313D0114653EA010019D067
:1004B000C8F14002504600F098F905460E465046F5
:1004C0005946424600F082F9084305D0012004E075
:1004D00020463946BDE8F08D0020054346EAE07627
:1004E0002C4337430A986305E40AA0EB0800002276
:1004F000FD0A44EA47540A3002D500200146E9E7E4
:10050000010510196941DDE9084500196941BDE897
:10051000F04DA2E72DE9FE4F804681EA0300C00FAF
:100520000C46009021F0004123F00045B8EB02009A
:10053000A94105D24046214690461C460B4602463C
:1005400023F00040104347D0270DC7F30A00C3F340
:100550000A510290401A019040286BDAC3F313004D
:1005600040F4801B0098924620B10023D2EB030A8E
:1005700063EB0B0B01985946C0F14002504600F066
:1005800025F906460D4650465946019A00F03DF9B8
:1005900010EB08006141002487EA115284EAE773F6
:1005A0001A4340D0009A62B3019A012A4FEA0752D7
:1005B00015DC001B61EB02014FF0004202EA07521A
:1005C000CDE90042001C41F5801132462B46FFF771
:1005D00053FF03B0BDE8F08F40462146F9E7001B0A
:1005E00061EB0201001C41F5801300185B412018EB
:1005F000A2F5001747EB030140EAD570B6196D412B
:1006000011E06D084FEA360645EAC0754FEA075219
:10061000001B61EB0201001C41F5801149084FEA03
:1006200030000019514132462B4603B0BDE8F04F6F
:10063000FFF713BF0098012240000023D0EB020215
:1006400063EBE073009821464FEAE074B8EB0000DA
:1006500061EB0401E9E783F000435BE781F00041CF
:1006600058E72DE9FE4F81EA030404F0004421F02D
:10067000004100944FF0000B23F0004350EA0104C6
:100680005ED052EA03045BD0C3F30A54C1F30A55A7
:100690002C44A4F2F3340194A0FB0254C1F31301DF
:1006A00041F48011C3F3130343F4801301FB0244AC
:1006B00000FB034E840A970A44EA815447EA8357B1
:1006C000A4FB076802958D0A05FB07854FEA932C6A
:1006D00004FB0C542705029D4FEA065847EA1637DB
:1006E000B5EB08056EEB070C870E920E47EA8117F3
:1006F00042EA8312A7FB0201B6EB0B0164EB000494
:100700002B0D43EA0C335E1844EB1C50DA4651467D
:10071000E7FB0201C5F313044FEA0B3343EA14531A
:100720004FEA0432019C43EA0603A4F10C0402944C
:10073000009CCDE900B4FFF79FFE03B0BDE8F08F49
:1007400000200146F9E7C1F30A52C1F3130140F258
:10075000FF3341F480119A4202DA002001467047CB
:1007600040F233439A42A2F2334202DC524200F09A
:100770003CB800F02BB8000030B5041E71F1000445
:1007800004DB4FF00044404264EB0101141E73F19E
:10079000000405DB1C464FF00043524263EB0403A8
:1007A000994208BF904230BD064C074D06E0E06814
:1007B00040F0010394E8070098471034AC42F6D3A8
:1007C000FFF71CFDA0220000C0220000202A04DB4D
:1007D000203A00FA02F1002070479140C2F1200354
:1007E00020FA03F3194390407047202A04DB203A93
:1007F00021FA02F00021704721FA02F3D040C2F141
:1008000020029140084319467047202A06DBCB1787
:10081000203A41FA02F043EAE07306E041FA02F3BB
:10082000D040C2F1200291400843194670474FF072
:100830008040D0F8401241F48031C0F84012704737
:1008400000F01F0201219140034A800F02EB80005B
:1008500002680A4302607047040200402DE9F84F25
:100860000D460446FFF7E3FF4FF08040484ED0F8B6
:100870000012C4B141F00401C0F80012102000F0D1
:10088000FBF94FF400200090424843492844B34606
:1008900088426DD84FF000094FF0FF324F464E4668
:1008A000AE46012015E041F00101C0F80012012020
:1008B00000F0E2F90020E6E7F2B3032839D004287B
:1008C00002D0022805D102E04FEA8E0501E04FEA8E
:1008D0004E0502236AB3BBFBF3F1304CDFF8BCC01A
:1008E0000C44CCF1000C644520D80224C1F35D0A0D
:1008F000DFF8A0C00AFB04F101EB0C08DFF8A0C090
:10090000E0450ED8B1EB950F02D9A1EB950101E0BE
:10091000C1EB9501914204D20A009946274606464A
:1009200004D040F20121641C8C42E1D95B1C202BD5
:10093000D0D9401C042800E000E0BDD91948009936
:1009400000EB8630184A084302EB49210843B91EE0
:1009500008434FF08041C1F84002042000F08CF9B8
:1009600006FB09F6BBFBF6F078434000BDE8F88FC4
:100970005CB10E494FF08040C0F84012042000F0F6
:100980007BF9BDE8F84F00F091B844F21E21F1E781
:10099000001BB700800F05FD8074D21A00F7C2FF5C
:1009A000C068780400C0FFFF00FEFFFF1E42080081
:1009B0004FF08041D1F800220243C1F80022704775
:1009C00010B500F0B3FC0148006810BD0000002025
:1009D00010B500F0ABFC0148006810BD000000201D
:1009E00010B500F0A3FC4FF08041D1F8340242076B
:1009F000134817D0D1F8342202F00702012A13D08D
:100A0000D1F8342202F00702022A10D0D1F83422A1
:100A100002F00702032A0DD0D1F8341201F00701C9
:100A200004290AD0006810BD0068400810BD0068A5
:100A3000800810BD0068C00810BD0068000910BD26
:100A40000000002010B500F071FC4FF08041D1F89B
:100A5000340210F0700F144817D0D1F83422C2F3CA
:100A60000212012A13D0D1F83422C2F30212022A50
:100A700010D0D1F83422C2F30212032A0DD0D1F8DB
:100A80003412C1F3021104290AD0006810BD0068B5
:100A9000400810BD0068800810BD0068C00810BD87
:100AA0000068000910BD00000000002008B510A17A
:100AB0000020096800914FF08041D1F8401211F4F4
:100AC000A02F13D10B488A0310D4C1F30800C1F33F
:100AD0008132094B801C1DF80220C1F34421584388
:100AE000491C11FB02F1B0FBF1F0C00008BD000091
:100AF00001020204001BB700C0C62D0070B54FF004
:100B000080440646D4F8500200F010051B48864287
:100B100000D90646D4F8000240F00400C4F80002F0
:100B2000102004F5007400F0A7F8206940F00700D9
:100B30002061206A20F00F0020622068A4F5007474
:100B4000C007314604D00020FFF788FE064608E0C3
:100B50004FF40020FFF782FE0646D4F8500200F062
:100B600010050021022000F00BF82DB9D4F8000286
:100B700020F00400C4F80002304670BD00B0710BD4
:100B80002DE9F0414FF080440746D4F850020E465C
:100B900000F01005D4F8000240F00400C4F8000290
:100BA000102004F5007400F067F8206940F0070099
:100BB0002061206A20F00F0030432062206920F07D
:100BC000070038432061A4F5007400F0AFFB002D4E
:100BD00005D1D4F8000220F00400C4F80002BDE8FA
:100BE000F0810000F0B510F47F3F2ED04FF080432D
:100BF000D3F8F431DFF878C0DFB21D4BC0F3814485
:100C00000C3B6FEA90450CF1040603EB8403012FC3
:100C100002D0022C0DD001E0022C02D0AC070AD089
:100C20000AE0C343DC06134B06D000F01F041D2C62
:100C300002D0634600E033461C68C0F38725C0F34A
:100C40004416B540AC4314431C60420E52070ED00C
:100C5000084BC0F30172183B03EB82021368C0F328
:100C60004264C0F304508440A3430B431360F0BDBF
:100C70002C0200402802004030B5012405460849F6
:100C8000A20705E0081EA1F1010101DC002404E037
:100C9000D2F8503235EA0300F4D1204630BD0000CE
:100CA00080F52000F0B500230127032507FA03F49F
:100CB0008C4309D106685C0005FA04FC26EA0C06A0
:100CC00002FA04F4264306605B1C102BEED3F0BD41
:100CD000044603A000F0DEFD204601F065FAFEE7C1
:100CE000496E2048617264204661756C74204861C9
:100CF0006E646C65720A000010B5094C0122114641
:100D00002046FFF7CFFF012202212046FFF7CAFF4E
:100D100020460122BDE810400421FFF7C3BF0000B8
:100D2000C041004000F01F020121914040098000B5
:100D300000F1E020C0F800117047D0F834248A4355
:100D4000C0F83424704701238B404AB1012A0DD0EA
:100D5000022A04D1D0F838141943C0F83814704767
:100D6000D0F818141943C0F81814704700EB01109C
:100D7000016821F0800101607047D0F834240A43F3
:100D8000C0F834247047000070B5264C20688105F7
:100D900023D5254D00231A460121284600F07DF871
:100DA00060152060FFF70CFEC00B4FF47A71B0FBAA
:100DB000F1F301221146284600F06FF8022128467F
:100DC000FFF7BBFF02212846FFF7D7FF01235A0395
:100DD0001946284600F08EF820684FF00205C1073A
:100DE00009D0104C241D2068800702D50FA000F008
:100DF00051FD256070BD80070ED50A4C083420686F
:100E00008007F6D50B490120886100F08FF90A4868
:100E10000168C9430160ECE7BDE8704007A000F03D
:100E200039BD00001C8400400080004061626F7288
:100E3000740D0A0000000540C0490040756E6B6EDD
:100E40006F776E20696E74657272757074202121DF
:100E50000A00000070B50022094D0126134606FA6B
:100E600002F40C4203D000EB02142360AB54521C7A
:100E7000102AF4D3D0F800240A43C0F8002470BD2F
:100E80004400002000EB0110016821F074010160B2
:100E900001681A4311430160704710B511B101296F
:100EA0000CD105E0D0F840446FF30F041C4303E07D
:100EB000D0F8404463F31F44C0F8404401238B4002
:100EC000D0F834140AB1194300E09943C0F834143F
:100ED00010BD30B500EB0110DDE9034542608460D0
:100EE000016821F47061016001682B4319430160BE
:100EF00030BD000010B500EB011001684CF6FF7426
:100F0000214001600168034C04EB03431343194380
:100F1000016010BD0000FFFF30B54D4D039C10294E
:100F20006A547DD2DFE801F008101720272F363FE2
:100F3000464E555E656D7489D0F8805425F07F0566
:100F40001543C0F880546BE0D0F8805425F4FE457A
:100F500045EA022205E0D0F8805425F4FE0545EA72
:100F60000242C0F880245BE0D0F8805425F0FE45B2
:100F700045EA0262F5E7D0F8845425F07F05154371
:100F8000C0F884544CE0D0F8845425F4FE4545EA7A
:100F9000022205E0D0F8845425F4FE0545EA024219
:100FA000C0F884243CE0D0F8845425F0FE4545EA9E
:100FB0000262F5E7D0F8885425F07F051543C0F8A4
:100FC00088542DE0D0F8885425F4FE4545EA0222E5
:100FD00005E0D0F8885425F4FE0545EA0242C0F841
:100FE00088241DE0D0F8885425F0FE4545EA0262C9
:100FF000F5E7D0F88C5425F07F051543C0F88C54E4
:101000000EE0D0F88C5425F4FE4545EA022205E0B6
:10101000D0F88C5425F4FE0545EA0242C0F88C2431
:1010200000EB0110016821F003016BB1891C016024
:1010300008490968611AC16030BDD0F88C5425F0A8
:10104000FE4545EA0262E9E7491C016030BD000047
:10105000440000203C8400407CB5314C01224FF01C
:10106000C051204600F022FA206840F0FF002060C6
:101070006FF07F40606000221146204600F0CEF9FC
:101080000121204600F02DFA1021204600F02FFA11
:10109000022000F02FF9234E02213046FFF7DAFE3E
:1010A00001235A0319463046FFF724FF00251E4846
:1010B000CDE900051A4A4FF4407310320121304641
:1010C000FFF707FF00232E22012130460095FFF78E
:1010D00023FF00231A4601213046FFF7D3FEFFF716
:1010E0006FFCC00B4FF47A71B0FBF1F30122114693
:1010F0003046FFF7D2FE02213046FFF73EFE0022C7
:1011000001213046FFF71FFE2820FFF70BFE206865
:1011100040F080402060BDE87C4000F061B80000F5
:1011200000000540008000403400002030B52DED67
:10113000028B85B00020194D029003902C1F286867
:10114000E168401A0490164800F074F90390000A10
:10115000029014480168C94301602868E168884228
:1011600013D90498FFF725F941EC180B0298FFF703
:1011700020F953EC182BFFF7ADF8CDE90001049BE3
:10118000A26809A0029900F085FB2868E06005B01C
:10119000BDEC028BBDE8304000F022B834000020E6
:1011A00000000540C4490040636C6F636B203A2027
:1011B0002536642028636F756E7465723A25356430
:1011C00029202C20446966663A202539642E204661
:1011D0007265713A20252E366620487A0D0A000085
:1011E0007CB50123104D5A0319462846FFF782FEAD
:1011F00000240E49CDE900144FF440730C4A01213C
:101200002846FFF766FE00232E220121284600947F
:10121000FFF782FE02B02846BDE87040002304229A
:101220000121FFF72FBE00000080004034000020A5
:101230001000054070B55920840716218822C4F893
:101240000001C4F80011C4F80021D4F80031002BCB
:10125000F5D04FF04020D0F8401121F0F001C0F857
:1012600040110120FFF7A4FB0120FFF705FD1D48F9
:10127000FFF744FC1120C4F834021B4D2846FFF749
:10128000DFFA002211462846FFF7ACFC0120FFF7E9
:10129000D7FA164D2846FFF7D3FA00224FF4001173
:1012A0002846FFF79FFC124D2846FFF7C9FA002297
:1012B0004FF400712846FFF795FC00F037F8E06B1B
:1012C00020F47F00E063E06B40F4CC00E063E06B6F
:1012D00020F0704040F05040E0630020C4F800016E
:1012E00070BD000000B0710B103D80570500405FDD
:1012F0000200805E0121044A814002EB1060026816
:101300000A438A43026070470800004006498A6920
:101310001202FCD40A2804D10D220A608A69120242
:10132000FCD40860704700000000074010B5FFF7CC
:10133000BDFB0E4A4FF080439060D3F8101201F0CD
:101340000701022903D002F10C0050F82100D3F864
:10135000201201F00F01491CB0FBF1F004491060AC
:1013600008444900B0FBF1F0506010BD00000020BF
:1013700020A107001A48016841F470010160194872
:10138000C16C21F00F0141F00801C1644FF08040B1
:10139000D0F8981241F48021C0F89812D0F80812C1
:1013A00041F00201C0F808120F49D1F8042102F0FF
:1013B000F732C1F80421D1F8082102F0F732C1F860
:1013C0000821D0F8081221F00201C0F808124FF0ED
:1013D0004020D0F8401121F0F001C0F840117047D2
:1013E00088ED00E000C000400010044010B50A4C39
:1013F00042F210724FF00061204600F057F820686A
:1014000040F0005020602320FFF78CFC206840F063
:101410008040206010BD00000011054010B54369F8
:1014200047F21004A3430B43134343F00801416107
:1014300010BD000010B588B0044620221749684648
:10144000FEF724FF164A174B9003944204D1D0F8BC
:101450001402C0F3022110E09C4204D1D0F814021F
:10146000C0F3023109E01049D0F814028C4202D1D5
:10147000C0F3024101E0C0F30251022903D05DF83C
:10148000210008B010BD944201D09C4202D1FFF768
:10149000A7FAF6E7FFF7D6FAF3E70000802200008C
:1014A00000000540000105400010054070B51646DB
:1014B0000D460446FFF7BEFF0023B6EB500F01D9DF
:1014C000022206E0B0FBF6F2130E02D0591CB2FB6A
:1014D000F1F21D43256062605B1C5A43B0FBF2F0E1
:1014E00070BDC26922F001020A43C2617047C2693D
:1014F00022F01E020A43C26170470000024881695F
:10150000012900D181617047000005400B488168C6
:10151000C1F30001002910D0012181600849086948
:10152000421C0A618A68B0EB520F06D300200861A2
:101530000448016881F00101016070470011054015
:1015400030000020C849004070B5224DE869224CA7
:10155000224AC0054FF0000313D594F80201401C45
:1015600084F8020100212E6810882654401C80B2A5
:101570001080FF2800D91380491CC9B20329F2D377
:1015800070BDE869C004FBD594F80301401C84F8E1
:10159000030104E0286811886054491C1180A8697F
:1015A0004004F7D5686820F0110068601380217846
:1015B0000BA000F06FF9207800F096F81121284672
:1015C00000F0CEF8BDE870404FF482710248FEF79B
:1015D00076BE0000000007405400002030000020CC
:1015E00055415254205258203A2030782532582004
:1015F0000D0A000010B51E48FFF77CFE1D4C4FF48D
:10160000E131204600F0B0F83C21204600F038F9E6
:10161000A06820F0F00040F01000A060606840F684
:101620001101084360602420FFF77CFB4FF48271B6
:101630001148FEF744FEA069C000FCD5FFF7C0F9D1
:1016400001460EA000F026F9FFF7C2F9014612A0EC
:1016500000F020F9FFF7C4F9014615A000F01AF9CF
:10166000FFF7F0F90146BDE8104018A000F012B9EC
:101670001000000400000740540000200D0A434CF5
:101680004B5F47657443505546726571203A20257B
:1016900038640D0A00000000434C4B5F47657448F6
:1016A000434C4B46726571203A202538640D0A0080
:1016B000434C4B5F47657450434C4B3046726571E9
:1016C000203A202538640D0A00000000434C4B5F8F
:1016D00047657450434C4B3146726571203A202562
:1016E00038640D0A000000001A49352829D00ADCA8
:1016F00031281DD032281ED033281FD0342828D1BD
:101700004FF47A7022E036281DD037281DD05A2891
:1017100001D07A281DD1BFF34F8F0F4801680F4ABF
:1017200001F4E06111430160BFF34F8F00BFFDE79B
:1017300049F640400AE044F6206007E042F21070AB
:1017400004E0282002E0142000E00A208860FFF76F
:1017500047BD7047300000200CED00E00400FA05A2
:1017600042680A43426070472DE9FF4104463C4805
:101770000F4600250FC88DE80F003A492E464FF05E
:1017800080408C4206D1D0F81412D0F82002C1F368
:1017900001652AE034498C4206D1D0F81412D0F801
:1017A0002002C1F381652BE030498C4208D1D0F88A
:1017B0001C12D0F83002C1F3016500F00F0621E0E1
:1017C0002B498C4208D1D0F81C12D0F83002C1F35A
:1017D0008165C0F3031615E026498C4208D1D0F884
:1017E0001C12D0F83002C1F30175C0F3032609E0E2
:1017F00021498C4206D1D0F81C12D0F830028D0F4E
:10180000C0F30336002020630320E060A0681B497A
:101810000840A060E846012D02D1FFF747F901908A
:10182000002F1AD058F82510761CB1FBF6F000EB0B
:101830005700B0FBF7F0801EB0F5803F0AD3B1FB34
:10184000F6F000EBC700B0FBF7F06FF0010101EB21
:10185000101001E040F040506062BDE8FF810000E0
:101860005022000000000740001007400020074001
:101870000030074000400740005007400FFFF0FFD6
:10188000026A22F0FF020A430262416841F40061E9
:10189000416070470FB4054B10B503A9044A029884
:1018A00000F0DAF810BC5DF814FB0000872100009E
:1018B0002C00002002E008C8121F08C1002AFAD13B
:1018C00070477047002001E001C1121F002AFBD1C0
:1018D000704700002DE9FF5F82B00021DDE9043090
:1018E000020DDDF840B0034318D044F61050A2F2C8
:1018F000FF3242431514119801281FD0A5EB0B00AD
:10190000401C5FEA000A4FF000064E4FDFF83891A6
:10191000B046504615D5CAF1000413E011980124D1
:101920004AA3012801D16FEA0B010298119AC0E97C
:101930000031C0E9024206B0BDE8F09FCBF10000E3
:10194000DFE704460021404A491842EB0450CDE944
:10195000001012E0E00707D032463B4640464946B9
:10196000FEF77FFE8046894632463B4610461946C2
:10197000FEF777FE06460F466410002CEAD1DDE93B
:101980000401DDE90023BAF1000F06DAFEF769FE73
:1019900042464B46FEF765FE05E0FEF79BFC4246DD
:1019A0004B46FEF797FC04460E460022284BFEF7F6
:1019B000E3FE03D84FF0FF30014607E00022254B3D
:1019C00020463146FEF7A6FDFEF7BDFE102409E0D5
:1019D000002C0ADB0A220023FEF70EFD039B3032A7
:1019E0001A55641E50EA0102F2D1641C039AC4F134
:1019F00011031444119A012A03D0012208430DD186
:101A00000AE0084304D000204FF0110B119072E758
:101A1000A3EB0B056D1E0DE05B4504DD4FF00002EE
:101A200005F1010504E003DA4FF00002A5F101051C
:101A3000002AECD002981199C0E90231C0E90045B2
:101A400079E70000000014400000F03F3000000083
:101A50000000F0430000E03F2DE9FF4F95B09B46AA
:101A60008946064600250FE2252877D1002427461F
:101A7000F84A0121059400E0044316F8013F203B99
:101A800001FA03F01042F7D130782A2811D06FF014
:101A90002F033078A0F13002092A16D8059A44F0B5
:101AA000020402EB820203EB42021044761C059012
:101AB000EFE759F8042B0592002A03DA504244F468
:101AC0000054059044F00204761C30782E2816D17C
:101AD00016F8010F44F004042A280DD06FF02F02ED
:101AE0003078A0F13003092B09D807EB870302EB0C
:101AF0004303C718761CF3E759F8047B761C30784B
:101B00006C280FD006DC4C2817D068280DD06A2826
:101B100014D104E0742810D07A280FD10DE044F4D9
:101B200000140AE044F4801401E044F44014727894
:101B3000824202D104F58014761C761C3078662827
:101B40000BD013DC582877D009DC002875D0452845
:101B5000F6D04628F4D047281AD19DE118E0632832
:101B600035D0642879D0652812D195E1702873D0DA
:101B700008DC6728F1D069286FD06E280DD06F2857
:101B800006D1B5E073282CD0752875D0782874D08C
:101B90005A46179990476D1C75E1C4F3025002280C
:101BA00009D003280DD0D9F8001004280DD00D60FD
:101BB00009F1040967E1D9F80010EA17C1E90052F8
:101BC000F6E7D9F800100D80F2E70D70F0E719F88C
:101BD000041B8DF8001000208DF80100EA4601205A
:101BE00003E059F804AB4FF0FF3061074FF00001FC
:101BF00002D40DE008F101018846B9420FDA8045B0
:101C0000F8DB1AF808100029F4D108E008F1010106
:101C100088468142FADB1AF808100029F6D10598A7
:101C20005B46A0EB080721463846179A00F094FA65
:101C3000284400EB080507E04DE029E10DE01AF823
:101C4000010B5A4617999047B8F10108F7D25B4645
:101C500021463846179A13E142E00A220092C4F363
:101C600002524FF0000A022A08D059F804CB032A86
:101C70004FEAEC710AD00DE029E02AE009F10701F2
:101C800021F00702F2E802C1914609E00FFA8CFC4C
:101C90004FEAEC71042A03D14FFA8CFC4FEAEC7145
:101CA000002907DA0A460021DCF1000C61EB020191
:101CB0002D2202E0220504D52B228DF804200122DA
:101CC00003E0E20701D02022F7E7904659E00A211D
:101CD00002E010220DE010214FF0000A00910BE00D
:101CE00010224FF0000A44F004040827009203E099
:101CF00008224FF0000A0092C4F30252022A05D0D3
:101D000059F804CB0021032A08D009E009F10701A2
:101D100021F00702F2E802C1914605E01FFA8CFCAF
:101D2000042A01D10CF0FF0C4FF00008220728D53F
:101D3000702806D0009B83F0100353EA0A0305D0F5
:101D40000EE040228DF80420012208E05CEA010246
:101D500006D030228DF804208DF80500022290462E
:101D6000009B83F0080353EA0A030AD15CEA0102EC
:101D700001D1620705D530228DF804204FF001080B
:101D80007F1E582804D034A003900EA802900DE0C6
:101D900036A0F9E753466046009AFEF72DFB8446CD
:101DA0000398825C0298401E029002705CEA010077
:101DB000F0D1029806A9081A00F1200A600702D59E
:101DC00024F4803400E00127574502DDA7EB0A0028
:101DD00000E0002000EB0A01009005984144401A01
:101DE0000590E00306D45B462146179A059800F05B
:101DF000B3F90544002706E001A85A46C05D1799CB
:101E000090476D1C7F1C4745F6DBE0030CD55B4615
:101E10002146179A059800F09FF9054404E0302008
:101E20005A46179990476D1C0099481E009000294A
:101E3000F5DC08E0029802995A460078491C0291A4
:101E4000179990476D1CBAF10001AAF1010AF1DC63
:101E500065E100000928010030313233343536376E
:101E600038396162636465660000000030313233E6
:101E70003435363738394142434445460000000086
:101E800000F058F90544761C307800287FF4ECAD5A
:101E900019B02846BDE8F08F620700D4062709F183
:101EA000070222F0070CFCE80223E14603F0004899
:101EB0005FEA080C02D00FF2702C0DE05FEA045CC0
:101EC00002D50FF2682C07E05FEAC47C02D00FF263
:101ED000602C01E0AFF2700C4FF0FF3823F00043AC
:101EE000CDF850C065280CD006DC452809D046281E
:101EF0001DD047283DD13DE0662818D067287ED107
:101F000038E00021112F01DB112000E0781CCDE921
:101F1000000106A90EA8FFF7DDFCDDE90F010E9A0E
:101F200003910021009207F1010A04914DE04FF066
:101F300000400097CDE9011006A90EA8FFF7CAFCE2
:101F4000DDE90F0203920E9B11990022DDF80CA02F
:101F50000093049211B9791C00EB010AB7EB0A0057
:101F600004D4C0F1FF3007F1010A0490AAEB070086
:101F7000019044E0012F00DA01270021112F01DD3B
:101F8000112000E03846CDE9000106A90EA8FFF7B0
:101F9000A1FCDDE90F010E9A03910021049100924A
:101FA000BA4621070CD40399514500DA8A46BAF1A2
:101FB000010F05DD009AAAF10101515C302908D01A
:101FC000B84202DA10F1040F06DA0121CDE901105E
:101FD00015E0AAF10101E9E7002805DC04990144B4
:101FE0000491AAEB000102E0411C514500DD8A4644
:101FF0000499401A401C01904FF0004002902007C5
:1020000004D40198504501DBCDF8048000208DF800
:102010004F0002980DF14F07B0F1004F25D02B2053
:102020000E9002984FF0020800280CDA404202900D
:102030002D200E9007E00A210298FEF7C7F93031F3
:10204000029007F8011DB8F10001A8F10108F2DCC7
:1020500002980028EFD1791E0E980870307800F0B1
:10206000200040F0450007F8020D12A8C01B00F147
:1020700007081498007800B1012000EB0A010198CC
:1020800001EBE07105984144401A401E0590E003C1
:1020900006D45B462146179A059800F05DF8054482
:1020A0001498007818B15A46179990476D1CE003B0
:1020B00024D55B462146179A059800F04DF8054453
:1020C0001CE00498002807DBDDE90301884203DDFA
:1020D0000098405C179901E0179930205A469047C4
:1020E000049805F10105401C04900198401E0190E0
:1020F00004D12E205A46179990476D1CBAF1000161
:10210000AAF1010ADDDC05E017F8010B5A46179920
:1021100090476D1CB8F10001A8F10108F4DC5B46A2
:102120002146179A0598ABE62D0000002B00000011
:10213000200000002DE9F041044600251E46174608
:10214000880404D405E039462020B0476D1C641E85
:10215000F9D52846BDE8F0812DE9F0410446002577
:102160001E469046C80301D5302700E0202788048A
:1021700004D505E041463846B0476D1C641EF9D5CC
:102180002846BDE8F08110B50446FFF7BFF82046A9
:1021900010BDFFF74FF8FFF72DFAFEF7ADFDFFF783
:1021A00025F9FEF759FFFEE710B50446016810A0B7
:1021B000FFF770FB11A06168FFF76CFB12A0A1682C
:1021C000FFF768FB13A0E168FFF764FB14A0216927
:1021D000FFF760FB15A06169FFF75CFB16A0A16922
:1021E000FFF758FBE169BDE8104016A0FFF752BBAE
:1021F000723020203D20307825780A00723120206E
:102200003D20307825780A00723220203D20307839
:1022100025780A00723320203D20307825780A0086
:10222000723132203D20307825780A006C722020EF
:102230003D20307825780A00706320203D203078DA
:1022400025780A00707372203D20307825780A00C6
:10225000001BB7000000000000800000001BB7005A
:10226000001BB7000000000000800000001BB7004A
:10227000001BB7000000000000800000001BB7003A
:10228000001BB700008000000000000000000000FC
:10229000000000001027000000000000001BB70035
:1022A000C02200000000002044000000B41800001C
:1022B000042300004400002014090000C41800009A
:1022C000001BB7000C000000001BB700001BB7008C
:1022D0000080000000000000102700000000000047
:1022E0000000000000000000001BB700000000001C
:1022F000000000000000000042000000000000009C
:0423000000000000D9
:0400000500000225D0
:00000001FF
